{
  "transactions": [
    {
      "hash": "0x825f2bdb18dbd4593911b005bb8ccfa48ae30b5e34da0d097068baf11774ce27",
      "transactionType": "CALL",
      "contractName": null,
      "contractAddress": "0xab93c56ddddf7a7a20cdd594f508cfc457910383",
      "function": "createGiftCard(bytes32,address,uint64)",
      "arguments": [
        "0x609b52814db9712f603b7f0f46396defc97818d978790c0759c466766f301d3c",
        "0x6E9972213BF459853FA33E28Ab7219e9157C8d02",
        "3600"
      ],
      "transaction": {
        "from": "0x1471195e6d540b3251128fa5248749e60285a2c2",
        "to": "0xab93c56ddddf7a7a20cdd594f508cfc457910383",
        "gas": "0x28c80",
        "value": "0x16345785d8a0000",
        "input": "0xc18a5ce6609b52814db9712f603b7f0f46396defc97818d978790c0759c466766f301d3c0000000000000000000000006e9972213bf459853fa33e28ab7219e9157c8d020000000000000000000000000000000000000000000000000000000000000e10",
        "nonce": "0x2",
        "chainId": "0xa869"
      },
      "additionalContracts": [],
      "isFixedGasLimit": false
    }
  ],
  "receipts": [
    {
      "status": "0x1",
      "cumulativeGasUsed": "0x1d867",
      "logs": [
        {
          "address": "0xab93c56ddddf7a7a20cdd594f508cfc457910383",
          "topics": [
            "0xca432dae1bcb1c3c957b3a5a9e55fce3d5bf7e495432b7333474c3fffc434c81",
            "0x0000000000000000000000000000000000000000000000000000000000000002",
            "0x0000000000000000000000001471195e6d540b3251128fa5248749e60285a2c2",
            "0x0000000000000000000000006e9972213bf459853fa33e28ab7219e9157c8d02"
          ],
          "data": "0x000000000000000000000000000000000000000000000000016345785d8a00000000000000000000000000000000000000000000000000000000000069290a4b",
          "blockHash": "0xbdfd37c3e125d4d92ea3e3d6f269920e12f02e781e5c5c1a4ca06cf54d1fc84b",
          "blockNumber": "0x2de8bd8",
          "transactionHash": "0x825f2bdb18dbd4593911b005bb8ccfa48ae30b5e34da0d097068baf11774ce27",
          "transactionIndex": "0x0",
          "logIndex": "0x0",
          "removed": false
        }
      ],
      "logsBloom": "0x04000000000000000000000000000000020000000000000000000000000000000000000000000000000000000000000000000000000000000000000000000020000000000000000000040000000000100000000000000800000000000000000000000000000000000000000000000000000000000000000000000000000000000000000000000000000000200000000000000000200000000000000000000000000000001000001000000100000000000000000000000000000000000000000000000000000000000000000000000000000000000000000000000000000000000000000001000000000000000000108000000000008000000000000000000000",
      "type": "0x2",
      "transactionHash": "0x825f2bdb18dbd4593911b005bb8ccfa48ae30b5e34da0d097068baf11774ce27",
      "transactionIndex": "0x0",
      "blockHash": "0xbdfd37c3e125d4d92ea3e3d6f269920e12f02e781e5c5c1a4ca06cf54d1fc84b",
      "blockNumber": "0x2de8bd8",
      "gasUsed": "0x1d867",
      "effectiveGasPrice": "0x1dcd6501",
      "from": "0x1471195e6d540b3251128fa5248749e60285a2c2",
      "to": "0xab93c56ddddf7a7a20cdd594f508cfc457910383",
      "contractAddress": null
    }
  ],
  "libraries": [],
  "pending": [],
  "returns": {},
  "timestamp": 1764293692170,
  "chain": 43113,
  "commit": null
}