{
  "transactions": [
    {
      "hash": "0x364da1815bf4be7bb2335dddf5b13e4ee6251db3ce83e56e95a2ef73623520de",
      "transactionType": "CALL",
      "contractName": null,
      "contractAddress": "0x3706d6174ef41768169a4b5e486391e36be096f7",
      "function": "createGiftCard(bytes32,address)",
      "arguments": [
        "0x298d7f4b0088ee8a62acc6b704da54d33e257f3c4a08e05a2c7e9d356ab858c2",
        "0x6E9972213BF459853FA33E28Ab7219e9157C8d02"
      ],
      "transaction": {
        "from": "0x560fe99acb6883dca145d49f89cc58c07afd231b",
        "to": "0x3706d6174ef41768169a4b5e486391e36be096f7",
        "gas": "0x2e145",
        "value": "0x16345785d8a0000",
        "input": "0x0714ed3f298d7f4b0088ee8a62acc6b704da54d33e257f3c4a08e05a2c7e9d356ab858c20000000000000000000000006e9972213bf459853fa33e28ab7219e9157c8d02",
        "nonce": "0x3",
        "chainId": "0xa869"
      },
      "additionalContracts": [],
      "isFixedGasLimit": false
    }
  ],
  "receipts": [
    {
      "status": "0x1",
      "cumulativeGasUsed": "0x215c6",
      "logs": [
        {
          "address": "0x3706d6174ef41768169a4b5e486391e36be096f7",
          "topics": [
            "0x73a9c59137c74dd26da9824581884725231f793d7128ba88c2f95cf39a060d77",
            "0x0000000000000000000000000000000000000000000000000000000000000001",
            "0x000000000000000000000000560fe99acb6883dca145d49f89cc58c07afd231b",
            "0x0000000000000000000000006e9972213bf459853fa33e28ab7219e9157c8d02"
          ],
          "data": "0x000000000000000000000000000000000000000000000000016345785d8a0000",
          "blockHash": "0xc489a06c34277e40954626901be4d894a307606938f11f23cc1bf8a8a94e7bba",
          "blockNumber": "0x2df7342",
          "transactionHash": "0x364da1815bf4be7bb2335dddf5b13e4ee6251db3ce83e56e95a2ef73623520de",
          "transactionIndex": "0x0",
          "logIndex": "0x0",
          "removed": false
        }
      ],
      "logsBloom": "0x00000000000000020000000000000000000000000000000000000000000000000000000000000040000000000000000000000000000000000000000000040000000000000000000020000000000000000000000000040000000000000000000000000000000000000000000000000000000000000000002000000000020000000000000000000000000008000000000000000000200000000000000000000000000000001000001000000200000000000000000000000000000000000000000000000000000000000000000000000000000000000000000000008000000040000004000000000000000000000000000000000000000000000000000000000000",
      "type": "0x2",
      "transactionHash": "0x364da1815bf4be7bb2335dddf5b13e4ee6251db3ce83e56e95a2ef73623520de",
      "transactionIndex": "0x0",
      "blockHash": "0xc489a06c34277e40954626901be4d894a307606938f11f23cc1bf8a8a94e7bba",
      "blockNumber": "0x2df7342",
      "gasUsed": "0x215c6",
      "effectiveGasPrice": "0x2",
      "from": "0x560fe99acb6883dca145d49f89cc58c07afd231b",
      "to": "0x3706d6174ef41768169a4b5e486391e36be096f7",
      "contractAddress": null
    }
  ],
  "libraries": [],
  "pending": [],
  "returns": {},
  "timestamp": 1764412528199,
  "chain": 43113,
  "commit": "07df5ed"
}