{
  "transactions": [
    {
      "hash": "0x28c4b039cf9e08e2042387f30751e5da2f024f4870a63e14116a28133fe6f4f6",
      "transactionType": "CALL",
      "contractName": null,
      "contractAddress": "0xe766f51576492ca4a59c38ccd2e369ecc1a17cbc",
      "function": "createGiftCard(bytes32,address)",
      "arguments": [
        "0x298d7f4b0088ee8a62acc6b704da54d33e257f3c4a08e05a2c7e9d356ab858c2",
        "0x6E9972213BF459853FA33E28Ab7219e9157C8d02"
      ],
      "transaction": {
        "from": "0x560fe99acb6883dca145d49f89cc58c07afd231b",
        "to": "0xe766f51576492ca4a59c38ccd2e369ecc1a17cbc",
        "gas": "0x2aaf3",
        "value": "0x16345785d8a0000",
        "input": "0x0714ed3f298d7f4b0088ee8a62acc6b704da54d33e257f3c4a08e05a2c7e9d356ab858c20000000000000000000000006e9972213bf459853fa33e28ab7219e9157c8d02",
        "nonce": "0x1",
        "chainId": "0xa869"
      },
      "additionalContracts": [],
      "isFixedGasLimit": false
    }
  ],
  "receipts": [
    {
      "status": "0x1",
      "cumulativeGasUsed": "0x1d2fa",
      "logs": [
        {
          "address": "0xe766f51576492ca4a59c38ccd2e369ecc1a17cbc",
          "topics": [
            "0x73a9c59137c74dd26da9824581884725231f793d7128ba88c2f95cf39a060d77",
            "0x0000000000000000000000000000000000000000000000000000000000000003",
            "0x000000000000000000000000560fe99acb6883dca145d49f89cc58c07afd231b",
            "0x0000000000000000000000006e9972213bf459853fa33e28ab7219e9157c8d02"
          ],
          "data": "0x000000000000000000000000000000000000000000000000016345785d8a0000",
          "blockHash": "0x9872410591ce28d1ed822a3e7995ccfc4aeb024309a20b51ccecd6f0cddb4d37",
          "blockNumber": "0x2df261c",
          "transactionHash": "0x28c4b039cf9e08e2042387f30751e5da2f024f4870a63e14116a28133fe6f4f6",
          "transactionIndex": "0x0",
          "logIndex": "0x0",
          "removed": false
        }
      ],
      "logsBloom": "0x00000000000000020000000000000000000000000000000000000000000000000000000000000000000080000000000000000000020000000000000000000000000000000000000000000000000000000800000000000000000000000000000000000000000000000000000000000000000000000000002000000000020000000000000000000000000008000000000000000000200000000000000000000000000000001000001000000000000000000000000000800000000000000000400000000000000000000000000000000000000000000000000000008000000000000004000000000000000000000000000000000000000000000002000000000000",
      "type": "0x2",
      "transactionHash": "0x28c4b039cf9e08e2042387f30751e5da2f024f4870a63e14116a28133fe6f4f6",
      "transactionIndex": "0x0",
      "blockHash": "0x9872410591ce28d1ed822a3e7995ccfc4aeb024309a20b51ccecd6f0cddb4d37",
      "blockNumber": "0x2df261c",
      "gasUsed": "0x1d2fa",
      "effectiveGasPrice": "0x2",
      "from": "0x560fe99acb6883dca145d49f89cc58c07afd231b",
      "to": "0xe766f51576492ca4a59c38ccd2e369ecc1a17cbc",
      "contractAddress": null
    }
  ],
  "libraries": [],
  "pending": [],
  "returns": {},
  "timestamp": 1764368586113,
  "chain": 43113,
  "commit": "ecaf7d1"
}