{
  "transactions": [
    {
      "hash": "0x7e410948483765f8d079610c346779ec1557447aa183ca670c20cebff65da66f",
      "transactionType": "CALL",
      "contractName": null,
      "contractAddress": "0xe766f51576492ca4a59c38ccd2e369ecc1a17cbc",
      "function": "createGiftCard(bytes32,address)",
      "arguments": [
        "0x298d7f4b0088ee8a62acc6b704da54d33e257f3c4a08e05a2c7e9d356ab858c2",
        "0x6E9972213BF459853FA33E28Ab7219e9157C8d02"
      ],
      "transaction": {
        "from": "0x8fb44c89d14d74fb4fc629916d54b1fa9929b490",
        "to": "0xe766f51576492ca4a59c38ccd2e369ecc1a17cbc",
        "gas": "0x2e145",
        "value": "0x16345785d8a0000",
        "input": "0x0714ed3f298d7f4b0088ee8a62acc6b704da54d33e257f3c4a08e05a2c7e9d356ab858c20000000000000000000000006e9972213bf459853fa33e28ab7219e9157c8d02",
        "nonce": "0x7",
        "chainId": "0xa869"
      },
      "additionalContracts": [],
      "isFixedGasLimit": false
    }
  ],
  "receipts": [
    {
      "status": "0x1",
      "cumulativeGasUsed": "0x215c6",
      "logs": [
        {
          "address": "0xe766f51576492ca4a59c38ccd2e369ecc1a17cbc",
          "topics": [
            "0x73a9c59137c74dd26da9824581884725231f793d7128ba88c2f95cf39a060d77",
            "0x0000000000000000000000000000000000000000000000000000000000000001",
            "0x0000000000000000000000008fb44c89d14d74fb4fc629916d54b1fa9929b490",
            "0x0000000000000000000000006e9972213bf459853fa33e28ab7219e9157c8d02"
          ],
          "data": "0x000000000000000000000000000000000000000000000000016345785d8a0000",
          "blockHash": "0x06be9b6e244840c473932316343ce476c4966d39f022d9415b4f9b1a9d1727a3",
          "blockNumber": "0x2df2558",
          "transactionHash": "0x7e410948483765f8d079610c346779ec1557447aa183ca670c20cebff65da66f",
          "transactionIndex": "0x0",
          "logIndex": "0x0",
          "removed": false
        }
      ],
      "logsBloom": "0x00000000000020020000000000000000000000000000000000000000000000000000000000040000000080000000000000000000000000000000000000040000000000000000000000000000000000000800000000040000000000000000000000000000000000000000000000000000000000000000000000000000020000000000000000000000000000000000000000000000200000000000000000000000000020001000001000000000000000000000000000000000000000000000000000000000000000000000000000000000000000000000000000008000000040000000000000000000000000000000000000000000000000000002000000000000",
      "type": "0x2",
      "transactionHash": "0x7e410948483765f8d079610c346779ec1557447aa183ca670c20cebff65da66f",
      "transactionIndex": "0x0",
      "blockHash": "0x06be9b6e244840c473932316343ce476c4966d39f022d9415b4f9b1a9d1727a3",
      "blockNumber": "0x2df2558",
      "gasUsed": "0x215c6",
      "effectiveGasPrice": "0x2",
      "from": "0x8fb44c89d14d74fb4fc629916d54b1fa9929b490",
      "to": "0xe766f51576492ca4a59c38ccd2e369ecc1a17cbc",
      "contractAddress": null
    }
  ],
  "libraries": [],
  "pending": [],
  "returns": {},
  "timestamp": 1764368214664,
  "chain": 43113,
  "commit": "ecaf7d1"
}