{
  "transactions": [
    {
      "hash": "0xb860f91558b8f4fadc9054ea1cc15367c2f3ce7676ecebc5dc2d26cdfe67f70c",
      "transactionType": "CALL",
      "contractName": null,
      "contractAddress": "0x36e12d7dea7aad3ed8f7d137c488db75916b0572",
      "function": "createGiftCard(bytes32,address)",
      "arguments": [
        "0x298d7f4b0088ee8a62acc6b704da54d33e257f3c4a08e05a2c7e9d356ab858c2",
        "0x6E9972213BF459853FA33E28Ab7219e9157C8d02"
      ],
      "transaction": {
        "from": "0x8fb44c89d14d74fb4fc629916d54b1fa9929b490",
        "to": "0x36e12d7dea7aad3ed8f7d137c488db75916b0572",
        "gas": "0x274c2",
        "value": "0x16345785d8a0000",
        "input": "0x0714ed3f298d7f4b0088ee8a62acc6b704da54d33e257f3c4a08e05a2c7e9d356ab858c20000000000000000000000006e9972213bf459853fa33e28ab7219e9157c8d02",
        "nonce": "0x3",
        "chainId": "0xa869"
      },
      "additionalContracts": [],
      "isFixedGasLimit": false
    }
  ],
  "receipts": [
    {
      "status": "0x1",
      "cumulativeGasUsed": "0x1c736",
      "logs": [
        {
          "address": "0x36e12d7dea7aad3ed8f7d137c488db75916b0572",
          "topics": [
            "0x73a9c59137c74dd26da9824581884725231f793d7128ba88c2f95cf39a060d77",
            "0x0000000000000000000000000000000000000000000000000000000000000001",
            "0x0000000000000000000000008fb44c89d14d74fb4fc629916d54b1fa9929b490",
            "0x0000000000000000000000006e9972213bf459853fa33e28ab7219e9157c8d02"
          ],
          "data": "0x000000000000000000000000000000000000000000000000016345785d8a0000",
          "blockHash": "0x19535cc749b020c3e9dedf1e8fe5102a086405a017965b5864c52c8a23fb02de",
          "blockNumber": "0x2df1da6",
          "transactionHash": "0xb860f91558b8f4fadc9054ea1cc15367c2f3ce7676ecebc5dc2d26cdfe67f70c",
          "transactionIndex": "0x0",
          "logIndex": "0x0",
          "removed": false
        }
      ],
      "logsBloom": "0x00000000000020020000000000000000000000000000000000000000000000000000000000040000000000000000000000000000000000000000000000040000000000000000000000000000000000000000000000040000000000000000000000000000000000000000000000000000000000000000000000000000020000000000000000000000000000000000000000000000200000000000000000000000000020001000001000004000000000000000000000000001000000000000000000000000000000000000000000000000000000000000000000008000000040000000000000000200000000000000000000000000000000000000000000000000",
      "type": "0x2",
      "transactionHash": "0xb860f91558b8f4fadc9054ea1cc15367c2f3ce7676ecebc5dc2d26cdfe67f70c",
      "transactionIndex": "0x0",
      "blockHash": "0x19535cc749b020c3e9dedf1e8fe5102a086405a017965b5864c52c8a23fb02de",
      "blockNumber": "0x2df1da6",
      "gasUsed": "0x1c736",
      "effectiveGasPrice": "0x2",
      "from": "0x8fb44c89d14d74fb4fc629916d54b1fa9929b490",
      "to": "0x36e12d7dea7aad3ed8f7d137c488db75916b0572",
      "contractAddress": null
    }
  ],
  "libraries": [],
  "pending": [],
  "returns": {},
  "timestamp": 1764364290051,
  "chain": 43113,
  "commit": "ecaf7d1"
}