{
  "transactions": [
    {
      "hash": "0xb1ccdbcb668a9110e4c4b16f5603270ba64edc0804d4c27159965e8e0ed1ccf6",
      "transactionType": "CALL",
      "contractName": null,
      "contractAddress": "0xe766f51576492ca4a59c38ccd2e369ecc1a17cbc",
      "function": "redeem(uint256,string,bytes,address)",
      "arguments": [
        "1",
        "hackathon-segreto-123",
        "0x384f8e73f43bf0bef152b5c2a1f6018f8fe1ca8a8008f37094898e71c9c6a0120162d52919d6fe8051b5051a9320512051d7d5c33153a63a8ae4a22ff6e510d31c",
        "0x5Ad92d0B4427d35D67A091B0b3CAbfDa5d57FC96"
      ],
      "transaction": {
        "from": "0x5ad92d0b4427d35d67a091b0b3cabfda5d57fc96",
        "to": "0xe766f51576492ca4a59c38ccd2e369ecc1a17cbc",
        "gas": "0x111f4",
        "value": "0x0",
        "input": "0x3584a6c90000000000000000000000000000000000000000000000000000000000000001000000000000000000000000000000000000000000000000000000000000008000000000000000000000000000000000000000000000000000000000000000c00000000000000000000000005ad92d0b4427d35d67a091b0b3cabfda5d57fc9600000000000000000000000000000000000000000000000000000000000000156861636b6174686f6e2d7365677265746f2d31323300000000000000000000000000000000000000000000000000000000000000000000000000000000000041384f8e73f43bf0bef152b5c2a1f6018f8fe1ca8a8008f37094898e71c9c6a0120162d52919d6fe8051b5051a9320512051d7d5c33153a63a8ae4a22ff6e510d31c00000000000000000000000000000000000000000000000000000000000000",
        "nonce": "0x0",
        "chainId": "0xa869"
      },
      "additionalContracts": [],
      "isFixedGasLimit": false
    }
  ],
  "receipts": [
    {
      "status": "0x1",
      "cumulativeGasUsed": "0xce12",
      "logs": [
        {
          "address": "0xe766f51576492ca4a59c38ccd2e369ecc1a17cbc",
          "topics": [
            "0x922f798eaf573e27f4783e4828621aff12fc8b076fed02a2192807167ec49945",
            "0x0000000000000000000000000000000000000000000000000000000000000001",
            "0x0000000000000000000000005ad92d0b4427d35d67a091b0b3cabfda5d57fc96"
          ],
          "data": "0x000000000000000000000000000000000000000000000000016345785d8a0000",
          "blockHash": "0x9aadbcb362b9f4e49d69cf7e3c81d57f1cebbc94468f0d74ecb890dea3971063",
          "blockNumber": "0x2df2641",
          "transactionHash": "0xb1ccdbcb668a9110e4c4b16f5603270ba64edc0804d4c27159965e8e0ed1ccf6",
          "transactionIndex": "0x0",
          "logIndex": "0x0",
          "removed": false
        }
      ],
      "logsBloom": "0x00000000000000000000000000000000000000004000000000000000000200000000000000000000000080000000004000000000000000000000000000040000000000080000000000000000000000000800000000040000000000008000000000000000000000000000000000000000000000000000000000000000000000000000000000000000000000000000000000000000000000000000000000000000000000000000000000000000000000000000200000000000000000000000000000000000000000000000000000000000000000000000000000000000000040000000000000000000000000000000000000000000000000000002000000000000",
      "type": "0x2",
      "transactionHash": "0xb1ccdbcb668a9110e4c4b16f5603270ba64edc0804d4c27159965e8e0ed1ccf6",
      "transactionIndex": "0x0",
      "blockHash": "0x9aadbcb362b9f4e49d69cf7e3c81d57f1cebbc94468f0d74ecb890dea3971063",
      "blockNumber": "0x2df2641",
      "gasUsed": "0xce12",
      "effectiveGasPrice": "0x2",
      "from": "0x5ad92d0b4427d35d67a091b0b3cabfda5d57fc96",
      "to": "0xe766f51576492ca4a59c38ccd2e369ecc1a17cbc",
      "contractAddress": null
    }
  ],
  "libraries": [],
  "pending": [],
  "returns": {},
  "timestamp": 1764368663428,
  "chain": 43113,
  "commit": "ecaf7d1"
}