{
  "transactions": [
    {
      "hash": "0x89e8f5117c0a7c05cfbbb52258349d84a50fbcfa856c9ff34fca95236ce3f877",
      "transactionType": "CALL",
      "contractName": null,
      "contractAddress": "0x36e12d7dea7aad3ed8f7d137c488db75916b0572",
      "function": "redeem(uint256,string,bytes,address)",
      "arguments": [
        "1",
        "hackathon-segreto-123",
        "0x889ada8bd2048107c10f411d1e1feb70b2dd125f841c088b01a858024192447a6b7bcd59a3c449ccd67ca4ddc69f2a6db6041ca085f0c2fb33d820d09c6289df1c",
        "0x560Fe99ACb6883dCA145D49f89cc58c07aFD231B"
      ],
      "transaction": {
        "from": "0x560fe99acb6883dca145d49f89cc58c07afd231b",
        "to": "0x36e12d7dea7aad3ed8f7d137c488db75916b0572",
        "gas": "0x111f4",
        "value": "0x0",
        "input": "0x3584a6c90000000000000000000000000000000000000000000000000000000000000001000000000000000000000000000000000000000000000000000000000000008000000000000000000000000000000000000000000000000000000000000000c0000000000000000000000000560fe99acb6883dca145d49f89cc58c07afd231b00000000000000000000000000000000000000000000000000000000000000156861636b6174686f6e2d7365677265746f2d31323300000000000000000000000000000000000000000000000000000000000000000000000000000000000041889ada8bd2048107c10f411d1e1feb70b2dd125f841c088b01a858024192447a6b7bcd59a3c449ccd67ca4ddc69f2a6db6041ca085f0c2fb33d820d09c6289df1c00000000000000000000000000000000000000000000000000000000000000",
        "nonce": "0x0",
        "chainId": "0xa869"
      },
      "additionalContracts": [],
      "isFixedGasLimit": false
    }
  ],
  "receipts": [
    {
      "status": "0x1",
      "cumulativeGasUsed": "0xce12",
      "logs": [
        {
          "address": "0x36e12d7dea7aad3ed8f7d137c488db75916b0572",
          "topics": [
            "0x922f798eaf573e27f4783e4828621aff12fc8b076fed02a2192807167ec49945",
            "0x0000000000000000000000000000000000000000000000000000000000000001",
            "0x000000000000000000000000560fe99acb6883dca145d49f89cc58c07afd231b"
          ],
          "data": "0x000000000000000000000000000000000000000000000000016345785d8a0000",
          "blockHash": "0x609a31cd1b139117ddde8e4c2b0a073c5435d58594cfabe5ce685cbe21935991",
          "blockNumber": "0x2df233d",
          "transactionHash": "0x89e8f5117c0a7c05cfbbb52258349d84a50fbcfa856c9ff34fca95236ce3f877",
          "transactionIndex": "0x0",
          "logIndex": "0x0",
          "removed": false
        }
      ],
      "logsBloom": "0x00000000000000000000000000000000000000004000000000000000000000000000000000000000000000000000000000000000000000000000000000040000000000080000000000000000000000000000000000040000000000000000000000000000000000000000000000000000000000000000002000000000000000000000000000000000000008000000000000000000000000000000000000000000000000000000000000004000000000000000200000000001000000000000000000000000000000000000000000000000000000000000000000000000000040000004000000000200000000000000000000000000000000000000000000000000",
      "type": "0x2",
      "transactionHash": "0x89e8f5117c0a7c05cfbbb52258349d84a50fbcfa856c9ff34fca95236ce3f877",
      "transactionIndex": "0x0",
      "blockHash": "0x609a31cd1b139117ddde8e4c2b0a073c5435d58594cfabe5ce685cbe21935991",
      "blockNumber": "0x2df233d",
      "gasUsed": "0xce12",
      "effectiveGasPrice": "0x2",
      "from": "0x560fe99acb6883dca145d49f89cc58c07afd231b",
      "to": "0x36e12d7dea7aad3ed8f7d137c488db75916b0572",
      "contractAddress": null
    }
  ],
  "libraries": [],
  "pending": [],
  "returns": {},
  "timestamp": 1764367098537,
  "chain": 43113,
  "commit": "ecaf7d1"
}