{
  "transactions": [
    {
      "hash": "0xcf7591ca6b2096caedcf2eb1b77900ebb59c41b01aaa201534c15a042fa5c39c",
      "transactionType": "CALL",
      "contractName": null,
      "contractAddress": "0xab93c56ddddf7a7a20cdd594f508cfc457910383",
      "function": "redeem(uint256,string,bytes,address)",
      "arguments": [
        "1",
        "hackathon-secret-123",
        "0x2e55f523626a22c0bc6754f441c493a5b46ed9adaff1e23c877a5dda5733f47b4261e4906a8faa060eda6c46ef7d4899fb080353b7683a24f055ee35888ed2861c",
        "0x8fb44c89d14d74fB4fC629916D54B1Fa9929b490"
      ],
      "transaction": {
        "from": "0x8fb44c89d14d74fb4fc629916d54b1fa9929b490",
        "to": "0xab93c56ddddf7a7a20cdd594f508cfc457910383",
        "gas": "0x103df",
        "value": "0x0",
        "input": "0x3584a6c90000000000000000000000000000000000000000000000000000000000000001000000000000000000000000000000000000000000000000000000000000008000000000000000000000000000000000000000000000000000000000000000c00000000000000000000000008fb44c89d14d74fb4fc629916d54b1fa9929b49000000000000000000000000000000000000000000000000000000000000000146861636b6174686f6e2d7365637265742d31323300000000000000000000000000000000000000000000000000000000000000000000000000000000000000412e55f523626a22c0bc6754f441c493a5b46ed9adaff1e23c877a5dda5733f47b4261e4906a8faa060eda6c46ef7d4899fb080353b7683a24f055ee35888ed2861c00000000000000000000000000000000000000000000000000000000000000",
        "nonce": "0x0",
        "chainId": "0xa869"
      },
      "additionalContracts": [],
      "isFixedGasLimit": false
    }
  ],
  "receipts": [
    {
      "status": "0x1",
      "cumulativeGasUsed": "0xcee5",
      "logs": [
        {
          "address": "0xab93c56ddddf7a7a20cdd594f508cfc457910383",
          "topics": [
            "0x922f798eaf573e27f4783e4828621aff12fc8b076fed02a2192807167ec49945",
            "0x0000000000000000000000000000000000000000000000000000000000000001",
            "0x0000000000000000000000008fb44c89d14d74fb4fc629916d54b1fa9929b490"
          ],
          "data": "0x000000000000000000000000000000000000000000000000016345785d8a0000",
          "blockHash": "0x56636afe181d8cb7577ad3a28df62cf25e73244e8096f342f46a13535092a574",
          "blockNumber": "0x2de8bad",
          "transactionHash": "0xcf7591ca6b2096caedcf2eb1b77900ebb59c41b01aaa201534c15a042fa5c39c",
          "transactionIndex": "0x0",
          "logIndex": "0x0",
          "removed": false
        }
      ],
      "logsBloom": "0x00000000000020000000000000000000020000004000000000000000000000000000000000040000000000000000000000000000000000000000000000040000000000080000000000040000000000000000000000040000000000000000000000000000000000000000000000000000000000000000000000000000000000000000000000000000000000000000000000000000000000000000000000000000000020000000000000000000000000000000200000000000000000000000000000000000000000000000000000000000000000000000000000000000000040000000000001000000000000000000000000000000000000000000000000000000",
      "type": "0x2",
      "transactionHash": "0xcf7591ca6b2096caedcf2eb1b77900ebb59c41b01aaa201534c15a042fa5c39c",
      "transactionIndex": "0x0",
      "blockHash": "0x56636afe181d8cb7577ad3a28df62cf25e73244e8096f342f46a13535092a574",
      "blockNumber": "0x2de8bad",
      "gasUsed": "0xcee5",
      "effectiveGasPrice": "0x2",
      "from": "0x8fb44c89d14d74fb4fc629916d54b1fa9929b490",
      "to": "0xab93c56ddddf7a7a20cdd594f508cfc457910383",
      "contractAddress": null
    }
  ],
  "libraries": [],
  "pending": [],
  "returns": {},
  "timestamp": 1764293593540,
  "chain": 43113,
  "commit": null
}