{
  "transactions": [
    {
      "hash": "0x672d3c558ea5ddf8eaabf73f119208a9231e2b3edad7fc41e83784a7589d2161",
      "transactionType": "CALL",
      "contractName": null,
      "contractAddress": "0xab93c56ddddf7a7a20cdd594f508cfc457910383",
      "function": "redeem(uint256,string,bytes,address)",
      "arguments": [
        "2",
        "hackathon-secret-123",
        "0xf1fd29e75dbefb3b50b9cd493c937168d6550ec583790e06e9634a702cbe2f4a6177579009cee1f0fe3ce9dc18f2220564abe4f4e6f5bf76bf3e4ee999c0c63d1c",
        "0x8fb44c89d14d74fB4fC629916D54B1Fa9929b490"
      ],
      "transaction": {
        "from": "0x8fb44c89d14d74fb4fc629916d54b1fa9929b490",
        "to": "0xab93c56ddddf7a7a20cdd594f508cfc457910383",
        "gas": "0x103df",
        "value": "0x0",
        "input": "0x3584a6c90000000000000000000000000000000000000000000000000000000000000002000000000000000000000000000000000000000000000000000000000000008000000000000000000000000000000000000000000000000000000000000000c00000000000000000000000008fb44c89d14d74fb4fc629916d54b1fa9929b49000000000000000000000000000000000000000000000000000000000000000146861636b6174686f6e2d7365637265742d3132330000000000000000000000000000000000000000000000000000000000000000000000000000000000000041f1fd29e75dbefb3b50b9cd493c937168d6550ec583790e06e9634a702cbe2f4a6177579009cee1f0fe3ce9dc18f2220564abe4f4e6f5bf76bf3e4ee999c0c63d1c00000000000000000000000000000000000000000000000000000000000000",
        "nonce": "0x1",
        "chainId": "0xa869"
      },
      "additionalContracts": [],
      "isFixedGasLimit": false
    }
  ],
  "receipts": [
    {
      "status": "0x1",
      "cumulativeGasUsed": "0xcee5",
      "logs": [
        {
          "address": "0xab93c56ddddf7a7a20cdd594f508cfc457910383",
          "topics": [
            "0x922f798eaf573e27f4783e4828621aff12fc8b076fed02a2192807167ec49945",
            "0x0000000000000000000000000000000000000000000000000000000000000002",
            "0x0000000000000000000000008fb44c89d14d74fb4fc629916d54b1fa9929b490"
          ],
          "data": "0x000000000000000000000000000000000000000000000000016345785d8a0000",
          "blockHash": "0xcb78e7ce9484e80c0d2a31324079564b566c6878830c793a2a69d4f902eeecac",
          "blockNumber": "0x2de8bf1",
          "transactionHash": "0x672d3c558ea5ddf8eaabf73f119208a9231e2b3edad7fc41e83784a7589d2161",
          "transactionIndex": "0x0",
          "logIndex": "0x0",
          "removed": false
        }
      ],
      "logsBloom": "0x04000000000020000000000000000000020000004000000000000000000000000000000000040000000000000000000000000000000000000000000000000000000000080000000000040000000000000000000000000000000000000000000000000000000000000000000000000000000000000000000000000000000000000000000000000000000000000000000000000000000000000000000000000000000020000000000000000100000000000000200000000000000000000000000000000000000000000000000000000000000000000000000000000000000000000000000001000000000000000000000000000000008000000000000000000000",
      "type": "0x2",
      "transactionHash": "0x672d3c558ea5ddf8eaabf73f119208a9231e2b3edad7fc41e83784a7589d2161",
      "transactionIndex": "0x0",
      "blockHash": "0xcb78e7ce9484e80c0d2a31324079564b566c6878830c793a2a69d4f902eeecac",
      "blockNumber": "0x2de8bf1",
      "gasUsed": "0xcee5",
      "effectiveGasPrice": "0x2",
      "from": "0x8fb44c89d14d74fb4fc629916d54b1fa9929b490",
      "to": "0xab93c56ddddf7a7a20cdd594f508cfc457910383",
      "contractAddress": null
    }
  ],
  "libraries": [],
  "pending": [],
  "returns": {},
  "timestamp": 1764293759619,
  "chain": 43113,
  "commit": null
}