{
  "transactions": [
    {
      "hash": "0x9a4f0fe739d83528f4bdc938be53965ed2e593eeb56024ae342f43611366dacc",
      "transactionType": "CALL",
      "contractName": null,
      "contractAddress": "0xe766f51576492ca4a59c38ccd2e369ecc1a17cbc",
      "function": "redeem(uint256,string,bytes,address)",
      "arguments": [
        "3",
        "hackathon-segreto-123",
        "0xa9413bff0a1fa6775032a78898011416f97d87eb4c0c632fd296ad381b6e4619124cccc4919b0c424a768e43fd273495ce662b40a37f64e4a153a7bd414600fc1b",
        "0x5Ad92d0B4427d35D67A091B0b3CAbfDa5d57FC96"
      ],
      "transaction": {
        "from": "0x5ad92d0b4427d35d67a091b0b3cabfda5d57fc96",
        "to": "0xe766f51576492ca4a59c38ccd2e369ecc1a17cbc",
        "gas": "0x10294",
        "value": "0x0",
        "input": "0x3584a6c90000000000000000000000000000000000000000000000000000000000000003000000000000000000000000000000000000000000000000000000000000008000000000000000000000000000000000000000000000000000000000000000c00000000000000000000000005ad92d0b4427d35d67a091b0b3cabfda5d57fc9600000000000000000000000000000000000000000000000000000000000000156861636b6174686f6e2d7365677265746f2d31323300000000000000000000000000000000000000000000000000000000000000000000000000000000000041a9413bff0a1fa6775032a78898011416f97d87eb4c0c632fd296ad381b6e4619124cccc4919b0c424a768e43fd273495ce662b40a37f64e4a153a7bd414600fc1b00000000000000000000000000000000000000000000000000000000000000",
        "nonce": "0x2",
        "chainId": "0xa869"
      },
      "additionalContracts": [],
      "isFixedGasLimit": false
    }
  ],
  "receipts": [
    {
      "status": "0x1",
      "cumulativeGasUsed": "0xcdf5",
      "logs": [
        {
          "address": "0xe766f51576492ca4a59c38ccd2e369ecc1a17cbc",
          "topics": [
            "0x922f798eaf573e27f4783e4828621aff12fc8b076fed02a2192807167ec49945",
            "0x0000000000000000000000000000000000000000000000000000000000000003",
            "0x0000000000000000000000005ad92d0b4427d35d67a091b0b3cabfda5d57fc96"
          ],
          "data": "0x000000000000000000000000000000000000000000000000016345785d8a0000",
          "blockHash": "0x50e58944478335427ac006623a52ab2b126e26a562fc9ffa0c751c4bac598520",
          "blockNumber": "0x2df2665",
          "transactionHash": "0x9a4f0fe739d83528f4bdc938be53965ed2e593eeb56024ae342f43611366dacc",
          "transactionIndex": "0x0",
          "logIndex": "0x0",
          "removed": false
        }
      ],
      "logsBloom": "0x00000000000000000000000000000000000000004000000000000000000200000000000000000000000080000000004000000000020000000000000000000000000000080000000000000000000000000800000000000000000000008000000000000000000000000000000000000000000000000000000000000000000000000000000000000000000000000000000000000000000000000000000000000000000000000000000000000000000000000000200000800000000000000000400000000000000000000000000000000000000000000000000000000000000000000000000000000000000000000000000000000000000000000002000000000000",
      "type": "0x2",
      "transactionHash": "0x9a4f0fe739d83528f4bdc938be53965ed2e593eeb56024ae342f43611366dacc",
      "transactionIndex": "0x0",
      "blockHash": "0x50e58944478335427ac006623a52ab2b126e26a562fc9ffa0c751c4bac598520",
      "blockNumber": "0x2df2665",
      "gasUsed": "0xcdf5",
      "effectiveGasPrice": "0x2",
      "from": "0x5ad92d0b4427d35d67a091b0b3cabfda5d57fc96",
      "to": "0xe766f51576492ca4a59c38ccd2e369ecc1a17cbc",
      "contractAddress": null
    }
  ],
  "libraries": [],
  "pending": [],
  "returns": {},
  "timestamp": 1764368726300,
  "chain": 43113,
  "commit": "ecaf7d1"
}