{
  "transactions": [
    {
      "hash": "0x9075ddf3c70be27af4833a4e5a268a28790ec1323a0a95769f429965b7880a07",
      "transactionType": "CALL",
      "contractName": null,
      "contractAddress": "0x3706d6174ef41768169a4b5e486391e36be096f7",
      "function": "redeem(uint256,string,bytes,address)",
      "arguments": [
        "1",
        "hackathon-segreto-123",
        "0x04a37e99e4cf6c49a56b7b39dce5486c80a3cbdfb12767d8b485f9b8317687ef53f4a06eb13035913cb6531708104f027be5cccf1dc890445a80d0a0fa8625e81b",
        "0x5Ad92d0B4427d35D67A091B0b3CAbfDa5d57FC96"
      ],
      "transaction": {
        "from": "0x5ad92d0b4427d35d67a091b0b3cabfda5d57fc96",
        "to": "0x3706d6174ef41768169a4b5e486391e36be096f7",
        "gas": "0x111db",
        "value": "0x0",
        "input": "0x3584a6c90000000000000000000000000000000000000000000000000000000000000001000000000000000000000000000000000000000000000000000000000000008000000000000000000000000000000000000000000000000000000000000000c00000000000000000000000005ad92d0b4427d35d67a091b0b3cabfda5d57fc9600000000000000000000000000000000000000000000000000000000000000156861636b6174686f6e2d7365677265746f2d3132330000000000000000000000000000000000000000000000000000000000000000000000000000000000004104a37e99e4cf6c49a56b7b39dce5486c80a3cbdfb12767d8b485f9b8317687ef53f4a06eb13035913cb6531708104f027be5cccf1dc890445a80d0a0fa8625e81b00000000000000000000000000000000000000000000000000000000000000",
        "nonce": "0x3",
        "chainId": "0xa869"
      },
      "additionalContracts": [],
      "isFixedGasLimit": false
    }
  ],
  "receipts": [
    {
      "status": "0x1",
      "cumulativeGasUsed": "0xce01",
      "logs": [
        {
          "address": "0x3706d6174ef41768169a4b5e486391e36be096f7",
          "topics": [
            "0x922f798eaf573e27f4783e4828621aff12fc8b076fed02a2192807167ec49945",
            "0x0000000000000000000000000000000000000000000000000000000000000001",
            "0x0000000000000000000000005ad92d0b4427d35d67a091b0b3cabfda5d57fc96"
          ],
          "data": "0x000000000000000000000000000000000000000000000000016345785d8a0000",
          "blockHash": "0x18cab59ca6e3a2d5f3d7b81c449fe8a0429de1fa211ecbf97059bab4161d0677",
          "blockNumber": "0x2df7357",
          "transactionHash": "0x9075ddf3c70be27af4833a4e5a268a28790ec1323a0a95769f429965b7880a07",
          "transactionIndex": "0x0",
          "logIndex": "0x0",
          "removed": false
        }
      ],
      "logsBloom": "0x00000000000000000000000000000000000000004000000000000000000200000000000000000040000000000000004000000000000000000000000000040000000000080000000020000000000000000000000000040000000000008000000000000000000000000000000000000000000000000000000000000000000000000000000000000000000000000000000000000000000000000000000000000000000000000000000000000200000000000000200000000000000000000000000000000000000000000000000000000000000000000000000000000000000040000000000000000000000000000000000000000000000000000000000000000000",
      "type": "0x2",
      "transactionHash": "0x9075ddf3c70be27af4833a4e5a268a28790ec1323a0a95769f429965b7880a07",
      "transactionIndex": "0x0",
      "blockHash": "0x18cab59ca6e3a2d5f3d7b81c449fe8a0429de1fa211ecbf97059bab4161d0677",
      "blockNumber": "0x2df7357",
      "gasUsed": "0xce01",
      "effectiveGasPrice": "0x2",
      "from": "0x5ad92d0b4427d35d67a091b0b3cabfda5d57fc96",
      "to": "0x3706d6174ef41768169a4b5e486391e36be096f7",
      "contractAddress": null
    }
  ],
  "libraries": [],
  "pending": [],
  "returns": {},
  "timestamp": 1764412641428,
  "chain": 43113,
  "commit": "07df5ed"
}