{
  "transactions": [
    {
      "hash": "0x8cc2215f9c255d331f1ebce0f2e96413faaf067022a6a5d41fb6303d59e84865",
      "transactionType": "CALL",
      "contractName": null,
      "contractAddress": "0xe766f51576492ca4a59c38ccd2e369ecc1a17cbc",
      "function": "redeem(uint256,string,bytes,address)",
      "arguments": [
        "2",
        "hackathon-segreto-123",
        "0xce60773bb4cf3f525ad2c3a7ca80b45bccc1cb3e68c217f3a2794881c326244a14fa03c309fc72462f76194ba50f3f516ec1802fcf0d373b37bf91b4420420101b",
        "0x5Ad92d0B4427d35D67A091B0b3CAbfDa5d57FC96"
      ],
      "transaction": {
        "from": "0x5ad92d0b4427d35d67a091b0b3cabfda5d57fc96",
        "to": "0xe766f51576492ca4a59c38ccd2e369ecc1a17cbc",
        "gas": "0x111db",
        "value": "0x0",
        "input": "0x3584a6c90000000000000000000000000000000000000000000000000000000000000002000000000000000000000000000000000000000000000000000000000000008000000000000000000000000000000000000000000000000000000000000000c00000000000000000000000005ad92d0b4427d35d67a091b0b3cabfda5d57fc9600000000000000000000000000000000000000000000000000000000000000156861636b6174686f6e2d7365677265746f2d31323300000000000000000000000000000000000000000000000000000000000000000000000000000000000041ce60773bb4cf3f525ad2c3a7ca80b45bccc1cb3e68c217f3a2794881c326244a14fa03c309fc72462f76194ba50f3f516ec1802fcf0d373b37bf91b4420420101b00000000000000000000000000000000000000000000000000000000000000",
        "nonce": "0x1",
        "chainId": "0xa869"
      },
      "additionalContracts": [],
      "isFixedGasLimit": false
    }
  ],
  "receipts": [
    {
      "status": "0x1",
      "cumulativeGasUsed": "0xce01",
      "logs": [
        {
          "address": "0xe766f51576492ca4a59c38ccd2e369ecc1a17cbc",
          "topics": [
            "0x922f798eaf573e27f4783e4828621aff12fc8b076fed02a2192807167ec49945",
            "0x0000000000000000000000000000000000000000000000000000000000000002",
            "0x0000000000000000000000005ad92d0b4427d35d67a091b0b3cabfda5d57fc96"
          ],
          "data": "0x000000000000000000000000000000000000000000000000016345785d8a0000",
          "blockHash": "0x4e57ed298ee8fde7d6c8cbb9c4078c5160b5ad25412c80b2047c7219a08da4ed",
          "blockNumber": "0x2df2654",
          "transactionHash": "0x8cc2215f9c255d331f1ebce0f2e96413faaf067022a6a5d41fb6303d59e84865",
          "transactionIndex": "0x0",
          "logIndex": "0x0",
          "removed": false
        }
      ],
      "logsBloom": "0x04000000000000000000000000000000000000004000000000000000000200000000000000000000000080000000004000000000000000000000000000000000000000080000000000000000000000000800000000000000000000008000000000000000000000000000000000000000000000000000000000000000000000000000000000000000000000000000000000000000000000000000000000000000000000000000000000000100000000000000200000000000000000000000000000000000000000000000000000000000000000000000000000000000000000000000000000000000000000000000000000000000008000000002000000000000",
      "type": "0x2",
      "transactionHash": "0x8cc2215f9c255d331f1ebce0f2e96413faaf067022a6a5d41fb6303d59e84865",
      "transactionIndex": "0x0",
      "blockHash": "0x4e57ed298ee8fde7d6c8cbb9c4078c5160b5ad25412c80b2047c7219a08da4ed",
      "blockNumber": "0x2df2654",
      "gasUsed": "0xce01",
      "effectiveGasPrice": "0x2",
      "from": "0x5ad92d0b4427d35d67a091b0b3cabfda5d57fc96",
      "to": "0xe766f51576492ca4a59c38ccd2e369ecc1a17cbc",
      "contractAddress": null
    }
  ],
  "libraries": [],
  "pending": [],
  "returns": {},
  "timestamp": 1764368692547,
  "chain": 43113,
  "commit": "ecaf7d1"
}